{
  "contractName": "CruiseMerkle",
  "abi": [
    {
      "inputs": [
        {
          "internalType": "bytes32",
          "name": "_lineMerkleRoot",
          "type": "bytes32"
        }
      ],
      "stateMutability": "nonpayable",
      "type": "constructor"
    },
    {
      "inputs": [
        {
          "internalType": "address",
          "name": "",
          "type": "address"
        }
      ],
      "name": "authUsers",
      "outputs": [
        {
          "internalType": "bool",
          "name": "",
          "type": "bool"
        }
      ],
      "stateMutability": "view",
      "type": "function",
      "constant": true
    },
    {
      "inputs": [],
      "name": "lineMerkleRoot",
      "outputs": [
        {
          "internalType": "bytes32",
          "name": "",
          "type": "bytes32"
        }
      ],
      "stateMutability": "view",
      "type": "function",
      "constant": true
    },
    {
      "inputs": [],
      "name": "owner",
      "outputs": [
        {
          "internalType": "address",
          "name": "",
          "type": "address"
        }
      ],
      "stateMutability": "view",
      "type": "function",
      "constant": true
    },
    {
      "inputs": [
        {
          "internalType": "address",
          "name": "_address",
          "type": "address"
        },
        {
          "internalType": "bool",
          "name": "_access",
          "type": "bool"
        }
      ],
      "name": "giveAccess",
      "outputs": [],
      "stateMutability": "nonpayable",
      "type": "function"
    },
    {
      "inputs": [
        {
          "internalType": "uint256",
          "name": "_path",
          "type": "uint256"
        },
        {
          "internalType": "bytes32[]",
          "name": "_witnesseList",
          "type": "bytes32[]"
        },
        {
          "internalType": "bytes32",
          "name": "_ticketHash",
          "type": "bytes32"
        }
      ],
      "name": "isValidTicket",
      "outputs": [
        {
          "internalType": "bool",
          "name": "",
          "type": "bool"
        }
      ],
      "stateMutability": "view",
      "type": "function",
      "constant": true
    }
  ],
  "bytecode": "0x608060405234801561001057600080fd5b506040516106983803806106988339818101604052602081101561003357600080fd5b81019080805190602001909291905050508060008190555033600160006101000a81548173ffffffffffffffffffffffffffffffffffffffff021916908373ffffffffffffffffffffffffffffffffffffffff160217905550506105fc8061009c6000396000f3fe608060405234801561001057600080fd5b50600436106100575760003560e01c80636356bb2f1461005c5780637369e9a2146100b65780638da5cb5b1461019857806390f54143146101cc578063f5ce616f146101ea575b600080fd5b61009e6004803603602081101561007257600080fd5b81019080803573ffffffffffffffffffffffffffffffffffffffff16906020019092919050505061023a565b60405180821515815260200191505060405180910390f35b610180600480360360608110156100cc57600080fd5b8101908080359060200190929190803590602001906401000000008111156100f357600080fd5b82018360208201111561010557600080fd5b8035906020019184602083028401116401000000008311171561012757600080fd5b919080806020026020016040519081016040528093929190818152602001838360200280828437600081840152601f19601f8201169050808301925050505050505091929192908035906020019092919050505061025a565b60405180821515815260200191505060405180910390f35b6101a06103b5565b604051808273ffffffffffffffffffffffffffffffffffffffff16815260200191505060405180910390f35b6101d46103db565b6040518082815260200191505060405180910390f35b6102386004803603604081101561020057600080fd5b81019080803573ffffffffffffffffffffffffffffffffffffffff1690602001909291908035151590602001909291905050506103e1565b005b60026020528060005260406000206000915054906101000a900460ff1681565b600060011515600260003373ffffffffffffffffffffffffffffffffffffffff1673ffffffffffffffffffffffffffffffffffffffff16815260200190815260200160002060009054906101000a900460ff16151514610305576040517f08c379a000000000000000000000000000000000000000000000000000000000815260040180806020018281038252603b81526020018061058c603b913960400191505060405180910390fd5b600084905060608490506000849050600061031f826104e2565b905060005b83518161ffff1610156103a257600180861614156103645761035d848261ffff168151811061034f57fe5b602002602001015183610520565b9150610388565b61038582858361ffff168151811061037857fe5b6020026020010151610520565b91505b6002858161039257fe5b0494508080600101915050610324565b5060005481149450505050509392505050565b600160009054906101000a900473ffffffffffffffffffffffffffffffffffffffff1681565b60005481565b600160009054906101000a900473ffffffffffffffffffffffffffffffffffffffff1673ffffffffffffffffffffffffffffffffffffffff163373ffffffffffffffffffffffffffffffffffffffff1614610487576040517f08c379a00000000000000000000000000000000000000000000000000000000081526004018080602001828103825260238152602001806105696023913960400191505060405180910390fd5b80600260008473ffffffffffffffffffffffffffffffffffffffff1673ffffffffffffffffffffffffffffffffffffffff16815260200190815260200160002060006101000a81548160ff0219169083151502179055505050565b60008082604051602001808360ff1660f81b815260010182815260200192505050604051602081830303815290604052805190602001209050919050565b600060018383604051602001808460ff1660f81b815260010183815260200182815260200193505050506040516020818303038152906040528051906020012090509291505056fe5b4372756973654d65726b6c655d3a204f6e6c79206f776e65722063616e2063616c6c5b4372756973654d65726b6c655d3a204f6e6c7920617574686f72697a656420757365722063616e2063616c6c20746869732066756e6374696f6ea264697066735822122037dbab4b194438f62613fe08867a6f00088125ce8b1db4c927e0817aeffce5de64736f6c634300060c0033",
  "immutableReferences": {},
  "source": "// SPDX-License-Identifier: MIT\r\npragma solidity ^0.6.0;\r\n\r\ncontract CruiseMerkle {\r\n    // Merkle root of the line, will get assigned on constructor\r\n    bytes32 public lineMerkleRoot;\r\n    address public owner;\r\n    mapping(address => bool) public authUsers;\r\n\r\n    //Contract constructor, gets merkle root and assigns it state variable\r\n    constructor(bytes32 _lineMerkleRoot) public {\r\n        lineMerkleRoot = _lineMerkleRoot;\r\n        owner = msg.sender;\r\n    }\r\n\r\n    /// @notice Gives access to certain addresses by owner\r\n    /// @param _address Address of user we want to give/take access to\r\n    /// @param _access Boolean value determining the access\r\n    function giveAccess(address _address, bool _access) public {\r\n        require(msg.sender == owner, \"[CruiseMerkle]: Only owner can call\");\r\n        authUsers[_address] = _access;\r\n    }\r\n\r\n    /// @notice Calculates the leaf Hash of the ticket\r\n    /// @param _leaf Hash of the ticket\r\n    /// @return bytes32 leaf Hash of the ticket\r\n    function hashForLeaf(bytes32 _leaf) private pure returns (bytes32) {\r\n        return keccak256(abi.encodePacked(uint8(0x00), _leaf));\r\n    }\r\n\r\n    /// @notice Calculates the node Hash of the ticket\r\n    /// @param _left Hash or witness of the user (decided by '0x00 and 0x01')\r\n    /// @param _right Witness or hash of the user (decided by '0x01 and 0x00')\r\n    /// @return bytes32 Node Hash of the ticket\r\n    function hashForNode(bytes32 _left, bytes32 _right)\r\n        private\r\n        pure\r\n        returns (bytes32)\r\n    {\r\n        return keccak256(abi.encodePacked(uint8(0x01), _left, _right));\r\n    }\r\n\r\n    /// @notice Generate a hash root based on input info and compare with state lineROot\r\n    /// @param  _path Path (Index) for the ticket hash in the tree\r\n    /// @param  _witnesseList Witnesses for issued ticket\r\n    /// @param _ticketHash Hash of the ticket info\r\n    /// @return  bytes32 Calculated root based on input data\r\n    function isValidTicket(\r\n        uint256 _path,\r\n        bytes32[] memory _witnesseList,\r\n        bytes32 _ticketHash\r\n    ) public view returns (bool) {\r\n        require(\r\n            authUsers[msg.sender] == true,\r\n            \"[CruiseMerkle]: Only authorized user can call this function\"\r\n        );\r\n        uint256 path = _path;\r\n        bytes32[] memory witnesses = _witnesseList;\r\n        bytes32 ticketHash = _ticketHash;\r\n        bytes32 ticketRoot = hashForLeaf(ticketHash); //  Calculates the leaf Hash of the passanger ticket\r\n        for (uint16 i = 0; i < witnesses.length; i++) {\r\n            if ((path & 0x01) == 1) {\r\n                //  Calculations based on 0x01 - ticket root is on the right\r\n                ticketRoot = hashForNode(witnesses[i], ticketRoot);\r\n            } else {\r\n                //  Calculations based on 0x00 - ticket root is on the left\r\n                ticketRoot = hashForNode(ticketRoot, witnesses[i]);\r\n            }\r\n            path /= 2;\r\n        }\r\n        return ticketRoot == lineMerkleRoot;\r\n    }\r\n}\r\n",
  "sourcePath": "C:\\Users\\majid\\Desktop\\projects\\merkleTree-cruiseLineTickets\\contracts\\CruiseMerkle.sol",
  "compiler": {
    "name": "solc",
    "version": "0.6.12+commit.27d51765.Emscripten.clang"
  },
  "schemaVersion": "3.2.0",
  "updatedAt": "2020-12-18T18:58:41.769Z",
  "networkType": "ethereum",
  "devdoc": {
    "kind": "dev",
    "methods": {
      "giveAccess(address,bool)": {
        "params": {
          "_access": "Boolean value determining the access",
          "_address": "Address of user we want to give/take access to"
        }
      },
      "isValidTicket(uint256,bytes32[],bytes32)": {
        "params": {
          "_path": "Path (Index) for the ticket hash in the tree",
          "_ticketHash": "Hash of the ticket info",
          "_witnesseList": "Witnesses for issued ticket"
        },
        "returns": {
          "_0": "bytes32 Calculated root based on input data"
        }
      }
    },
    "version": 1
  },
  "userdoc": {
    "kind": "user",
    "methods": {
      "giveAccess(address,bool)": {
        "notice": "Gives access to certain addresses by owner"
      },
      "isValidTicket(uint256,bytes32[],bytes32)": {
        "notice": "Generate a hash root based on input info and compare with state lineROot"
      }
    },
    "version": 1
  }
}